:100000000C9462000C948A000C948A000C948A0070
:100010000C948A000C948A000C948A000C948A0038
:100020000C948A000C948A000C948A000C948A0028
:100030000C948A000C9412030C948A000C948A008D
:100040000C9470020C948A000C94E0020C94BA0296
:100050000C948A000C948A000C948A000C948A00F8
:100060000C948A000C948A000000000024002700F1
:100070002A0000000000250028002B0000000000DE
:1000800023002600290004040404040404040202DA
:100090000202020203030303030301020408102007
:1000A0004080010204081020010204081020000012
:1000B0000008000201000003040700000000000027
:1000C0000000730411241FBECFEFD8E0DEBFCDBF08
:1000D00011E0A0E0B1E0E4E7FFE002C005900D927E
:1000E000A032B107D9F721E0A0E2B1E001C01D9232
:1000F000A23EB207E1F710E0C2E6D0E004C02197CB
:10010000FE010E94AD07C136D107C9F70E94B604AF
:100110000C94B8070C940000CF92DF92EF92FF92FC
:100120000F931F93CF93DF936C017A018B01C0E093
:10013000D0E0CE15DF0589F0D8016D918D01D60193
:10014000ED91FC910190F081E02DC6010995892B7C
:1001500011F47E0102C02196ECCFC701DF91CF914F
:100160001F910F91FF90EF90DF90CF900895089529
:1001700080E090E00895FC01538D448D252F30E000
:10018000842F90E0821B930B541710F0CF960895A4
:1001900001970895FC01918D828D981761F0828DF1
:1001A000DF01A80FB11D5D968C91928D9F5F9F73AB
:1001B000928F90E008958FEF9FEF0895FC01918D4D
:1001C000828D981731F0828DE80FF11D858D90E0BA
:1001D00008958FEF9FEF0895FC01918D228D892F57
:1001E00090E0805C9F4F821B91098F73992708953F
:1001F0008DE291E00E94EC0021E0892B09F420E0DF
:10020000822F0895FC01848DDF01A80FB11DA35A30
:10021000BF4F2C91848D90E001968F739927848F26
:10022000A689B7892C93A089B1898C9180648C931D
:10023000938D848D981306C00288F389E02D808108
:100240008F7D80830895EF92FF920F931F93CF933A
:10025000DF93EC0181E0888F9B8D8C8D981305C016
:10026000E889F989808185FD24C0F62E0B8D10E088
:100270000F5F1F4F0F731127E02E8C8DE8120CC0FB
:100280000FB607FCFACFE889F989808185FFF5CFA1
:10029000CE010E940201F1CF8B8DFE01E80FF11D0E
:1002A000E35AFF4FF0820B8FEA89FB8980818062DD
:1002B00007C0EE89FF896083E889F98980818064BD
:1002C000808381E090E0DF91CF911F910F91FF90AB
:1002D000EF900895CF93DF93EC01888D8823C9F0C8
:1002E000EA89FB89808185FD05C0A889B9898C913F
:1002F00086FD0FC00FB607FCF5CF808185FFF2CFDA
:10030000A889B9898C9185FFEDCFCE010E940201A9
:10031000E7CFDF91CF91089580E090E0892B29F01D
:100320000E94F80081110C9400000895833081F040
:1003300028F4813099F08230A1F008958730A9F037
:100340008830B9F08430D1F4809180008F7D03C073
:10035000809180008F7780938000089584B58F7797
:1003600002C084B58F7D84BD08958091B0008F77E1
:1003700003C08091B0008F7D8093B0000895CF932B
:10038000DF93282F30E0F901E255FF4F8491F90106
:10039000E656FF4FD491F901EA57FF4FC491CC23A1
:1003A00091F081110E949601EC2FF0E0EE0FFF1FFB
:1003B000E458FF4FA591B491EC91ED2381E090E0DA
:1003C00021F480E002C080E090E0DF91CF910895B9
:1003D0001F93CF93DF93282F30E0F901E255FF4FB1
:1003E0008491F901E656FF4FD491F901EA57FF4F86
:1003F000C491CC23C9F0162F81110E949601EC2FD5
:10040000F0E0EE0FFF1FEE58FF4FA591B4918FB7AC
:10041000F894111105C09C91ED2FE095E92302C0DD
:10042000EC91ED2BEC938FBFDF91CF911F9108954D
:10043000CF93DF9390E0FC01E656FF4F2491FC013F
:10044000EA57FF4F8491882361F190E0880F991F4C
:10045000FC01E859FF4FC591D491FC01EE58FF4FC4
:10046000A591B491611109C09FB7F8948881209536
:1004700082238883EC912E230BC0623061F49FB7F6
:10048000F8943881822F809583238883EC912E2BDA
:100490002C939FBF06C08FB7F894E8812E2B28833A
:1004A0008FBFDF91CF91089560E08AE00E94E8015C
:1004B00060E08BE00C94E801009769F0FC0101908A
:1004C0000020E9F73197AF01481B590BBC018DE2C1
:1004D00091E00C948C0080E090E008950E94B307B6
:1004E0001F920F920FB60F9211242F933F938F9369
:1004F0009F93AF93BF938091290190912A01A0917E
:100500002B01B0912C013091280126E0230F2D37CB
:1005100020F40296A11DB11D05C029E8230F039602
:10052000A11DB11D209328018093290190932A01D8
:10053000A0932B01B0932C0180912401909125016F
:10054000A0912601B09127010196A11DB11D8093B4
:10055000240190932501A0932601B0932701BF9118
:10056000AF919F918F913F912F910F900FBE0F9060
:100570001F9018951F920F920FB60F9211242F9370
:100580003F934F935F936F937F938F939F93AF931B
:10059000BF93EF93FF938DE291E00E940201FF91E0
:1005A000EF91BF91AF919F918F917F916F915F91EB
:1005B0004F913F912F910F900FBE0F901F90189564
:1005C0001F920F920FB60F9211242F938F939F9328
:1005D000EF93FF93E0913D01F0913E018081E09126
:1005E0004301F091440182FD12C090818091460147
:1005F0008F5F8F7320914701821751F0E091460180
:10060000F0E0E35DFE4F958F8093460101C080814D
:10061000FF91EF919F918F912F910F900FBE0F90AF
:100620001F9018951F920F920FB60F9211244F92A0
:100630005F926F927F928F929F92AF92BF92CF9272
:10064000DF92EF92FF922F933F934F935F936F93BD
:100650007F938F939F93AF93BF93EF93FF93CF932A
:10066000DF93CDB7DEB7A597DEBFCDBF8091200168
:100670009091210101969093210180932001809116
:1006800020019091210103970CF408C110922101DF
:10069000109220018CED9BE0909385008093840064
:1006A00080E480937C0080917A00806480937A005B
:1006B00080917A0086FDFCCFF0907800E090790080
:1006C0008091CE019091CF01A091D001B091D10144
:1006D0008AA39BA3ACA3BDA32091CA013091CB01F7
:1006E0004091CC015091CD01BC01CD010E947C050F
:1006F0009B01AC016AA17BA18CA19DA10E94E80590
:100700002B013C016093DE017093DF018093E001D7
:100710009093E1018090DA019090DB01A090DC01E0
:10072000B090DD016F2D70E07E29072E000C880B44
:10073000990B0E949206A50194010E947B059B01E2
:10074000AC01C301B2010E941E079B01AC01C501AF
:10075000B4010E947C056B017C016093D60170930B
:10076000D7018093D8019093D901A301920160E051
:1007700070E080E89FE30E947B052AA13BA14CA189
:100780005DA10E941E072B013C01A7019601C50136
:10079000B4010E947B059F772091D2013091D30153
:1007A0004091D4015091D5010E941E079B01AC01DC
:1007B000C301B2010E947C056093CE017093CF010A
:1007C0008093D0019093D101C092DA01D092DB01E5
:1007D000E092DC01F092DD01C701B6010E945A06E9
:1007E000709323016093220182E191E00E945C02F8
:1007F000C0902201D09023010D2C000CEE08FF08C0
:10080000F7FE2BC0E0912D01F0912E010190F081B7
:10081000E02D6DE28DE291E0099522273327A901B1
:100820002C193D094E095F0919A2DE0191967D013F
:100830009AE0892E912CA12CB12CCA01B901A501F5
:1008400094010E948B07605DF70162937F0121157F
:1008500031054105510589F71AC0A701960119A272
:10086000CE0181967C018AE0882E912CA12CB12C9E
:10087000CA01B901A50194010E948B07605DD701EF
:100880006E937D01211531054105510589F7C70199
:100890000E945C028CE191E00E945C02A5960FB67A
:1008A000F894DEBF0FBECDBFDF91CF91FF91EF91E6
:1008B000BF91AF919F918F917F916F915F914F9178
:1008C0003F912F91FF90EF90DF90CF90BF90AF902E
:1008D0009F908F907F906F905F904F900F900FBE82
:1008E0000F901F901895EDE2F1E01382128288EECE
:1008F00093E0A0E0B0E084839583A683B78384E08F
:1009000091E09183808385EC90E09587848784ECE7
:1009100090E09787868780EC90E0918B808B81ECCC
:1009200090E0938B828B82EC90E0958B848B86ECAD
:1009300090E0978B868B118E128E138E148EEAECBC
:10094000F1E080E090E0A0E0B0E480839183A283B6
:10095000B38384839583A683B78380E090E0A0E887
:10096000BFE380879187A287B3870895789484B581
:10097000826084BD84B5816084BD85B5826085BD9B
:1009800085B5816085BD80916E00816080936E0029
:10099000109281008091810082608093810080911B
:1009A00081008160809381008091800081608093CC
:1009B00080008091B10084608093B1008091B0008C
:1009C00081608093B00080917A00846080937A0087
:1009D00080917A00826080937A0080917A008E7F85
:1009E00080937A0080917A00806880937A001092D8
:1009F000C10062E088E00E94180262E089E00E9483
:100A0000180261E08AE00E94180261E08BE00E9417
:100A100018020E945402E0913D01F0913E0182E0F3
:100A20008083E0913901F0913A011082E0913B011D
:100A3000F0913C0187E6808310924501E0914101ED
:100A4000F091420186E08083E0913F01F091400106
:100A5000808180618083E0913F01F091400180813D
:100A600088608083E0913F01F0914001808180683F
:100A70008083E0913F01F091400180818F7D8083F0
:100A8000F894109280001092810010926F00809173
:100A900081008360809381008CED9BE090938500C2
:100AA0008093840081E080936F007894809122018C
:100AB000909123018538934074F088E00E94BF0133
:100AC000892B19F00E94540213C060E08AE00E9452
:100AD000E80161E00AC089E00E94BF01892B91F71B
:100AE00061E08AE00E94E80160E08BE00E94E8019A
:100AF0000E948C01DBCF5058BB27AA270E94930588
:100B00000C94E4060E94D60638F00E94DD0620F020
:100B100039F49F3F19F426F40C94D3060EF4E095B3
:100B2000E7FB0C94CD06E92F0E94F50658F3BA179F
:100B3000620773078407950720F079F4A6F50C94F3
:100B400017070EF4E0950B2EBA2FA02D0B01B9015B
:100B500090010C01CA01A0011124FF27591B99F033
:100B6000593F50F4503E68F11A16F040A22F232F3F
:100B7000342F4427585FF3CF469537952795A7958F
:100B8000F0405395C9F77EF41F16BA0B620B730B36
:100B9000840BBAF09150A1F0FF0FBB1F661F771FA7
:100BA000881FC2F70EC0BA0F621F731F841F48F45C
:100BB000879577956795B795F7959E3F08F0B0CFE5
:100BC0009395880F08F09927EE0F979587950895CC
:100BD0000E94FC050C94E4060E94DD0658F00E9479
:100BE000D60640F029F45F3F29F00C94CD06511150
:100BF0000C9418070C94D3060E94F50668F3992309
:100C0000B1F3552391F3951B550BBB27AA27621708
:100C10007307840738F09F5F5F4F220F331F441F15
:100C2000AA1FA9F335D00E2E3AF0E0E832D0915049
:100C30005040E695001CCAF72BD0FE2F29D0660F36
:100C4000771F881FBB1F261737074807AB07B0E879
:100C500009F0BB0B802DBF01FF2793585F4F3AF07F
:100C60009E3F510578F00C94CD060C9418075F3F19
:100C7000E4F3983ED4F3869577956795B795F79505
:100C80009F5FC9F7880F911D9695879597F90895ED
:100C9000E1E0660F771F881FBB1F62177307840789
:100CA000BA0720F0621B730B840BBA0BEE1F88F798
:100CB000E09508950E9461066894B1110C9418079C
:100CC00008950E94FD0688F09F5798F0B92F992744
:100CD000B751B0F0E1F0660F771F881F991F1AF027
:100CE000BA95C9F714C0B13091F00E941707B1E06E
:100CF00008950C941707672F782F8827B85F39F06D
:100D0000B93FCCF3869577956795B395D9F73EF4BF
:100D100090958095709561957F4F8F4F9F4F089567
:100D2000E89409C097FB3EF4909580957095619585
:100D30007F4F8F4F9F4F9923A9F0F92F96E9BB273B
:100D40009395F695879577956795B795F111F8CFB7
:100D5000FAF4BB0F11F460FF1BC06F5F7F4F8F4F22
:100D60009F4F16C0882311F096E911C0772321F018
:100D70009EE8872F762F05C0662371F096E8862FB0
:100D800070E060E02AF09A95660F771F881FDAF707
:100D9000880F9695879597F9089597F99F6780E84A
:100DA00070E060E008959FEF80EC089500240A94BD
:100DB0001616170618060906089500240A94121636
:100DC0001306140605060895092E0394000C11F469
:100DD000882352F0BB0F40F4BF2B11F460FF04C016
:100DE0006F5F7F4F8F4F9F4F089557FD9058440F6F
:100DF000551F59F05F3F71F04795880F97FB991F7A
:100E000061F09F3F79F08795089512161306140636
:100E1000551FF2CF4695F1DF08C0161617061806C3
:100E2000991FF1CF86957105610508940895E8949E
:100E3000BB2766277727CB0197F908950E943107D2
:100E40000C94E4060E94D60638F00E94DD0620F0DD
:100E5000952311F00C94CD060C94D30611240C9418
:100E600018070E94F50670F3959FC1F3950F50E0A7
:100E7000551F629FF001729FBB27F00DB11D639F4C
:100E8000AA27F00DB11DAA1F649F6627B00DA11DF2
:100E9000661F829F2227B00DA11D621F739FB00D98
:100EA000A11D621F839FA00D611D221F749F332708
:100EB000A00D611D231F849F600D211D822F762FA1
:100EC0006A2F11249F5750409AF0F1F088234AF07E
:100ED000EE0FFF1FBB1F661F771F881F91505040EA
:100EE000A9F79E3F510580F00C94CD060C9418078D
:100EF0005F3FE4F3983ED4F3869577956795B79571
:100F0000F795E7959F5FC1F7FE2B880F911D96958A
:100F1000879597F90895A1E21A2EAA1BBB1BFD0124
:100F20000DC0AA1FBB1FEE1FFF1FA217B307E407C8
:100F3000F50720F0A21BB30BE40BF50B661F771F20
:100F4000881F991F1A9469F7609570958095909500
:100F50009B01AC01BD01CF010895EE0FFF1F05906D
:100F6000F491E02D099481E090E0F8940C94B80796
:040F7000F894FFCF23
:100F74000000000023018C00BB006A01EC00CA00E1
:100F8400DE0073656E736F72203D20000D0A000051
:00000001FF
